{
  "_format": "hh-sol-artifact-1",
  "contractName": "BlackPools",
  "sourceName": "contracts/BlackPools.sol",
  "abi": [
    {
      "inputs": [
        {
          "internalType": "uint8",
          "name": "got",
          "type": "uint8"
        },
        {
          "internalType": "uint8",
          "name": "expected",
          "type": "uint8"
        }
      ],
      "name": "InvalidEncryptedInput",
      "type": "error"
    },
    {
      "inputs": [],
      "name": "ReentrancyGuardReentrantCall",
      "type": "error"
    },
    {
      "inputs": [
        {
          "internalType": "address",
          "name": "token",
          "type": "address"
        }
      ],
      "name": "SafeERC20FailedOperation",
      "type": "error"
    },
    {
      "inputs": [
        {
          "internalType": "int32",
          "name": "value",
          "type": "int32"
        }
      ],
      "name": "SecurityZoneOutOfBounds",
      "type": "error"
    },
    {
      "anonymous": false,
      "inputs": [
        {
          "indexed": true,
          "internalType": "bytes32",
          "name": "marketId",
          "type": "bytes32"
        },
        {
          "indexed": true,
          "internalType": "address",
          "name": "user",
          "type": "address"
        },
        {
          "indexed": true,
          "internalType": "address",
          "name": "receiver",
          "type": "address"
        },
        {
          "indexed": false,
          "internalType": "uint256",
          "name": "amount",
          "type": "uint256"
        }
      ],
      "name": "Borrowed",
      "type": "event"
    },
    {
      "anonymous": false,
      "inputs": [
        {
          "indexed": true,
          "internalType": "bytes32",
          "name": "marketId",
          "type": "bytes32"
        },
        {
          "indexed": true,
          "internalType": "address",
          "name": "caller",
          "type": "address"
        },
        {
          "indexed": false,
          "internalType": "uint256",
          "name": "amount",
          "type": "uint256"
        }
      ],
      "name": "CollateralSupplied",
      "type": "event"
    },
    {
      "anonymous": false,
      "inputs": [
        {
          "indexed": true,
          "internalType": "bytes32",
          "name": "marketId",
          "type": "bytes32"
        },
        {
          "indexed": true,
          "internalType": "address",
          "name": "caller",
          "type": "address"
        },
        {
          "indexed": true,
          "internalType": "address",
          "name": "receiver",
          "type": "address"
        }
      ],
      "name": "CollateralWithdrawn",
      "type": "event"
    },
    {
      "anonymous": false,
      "inputs": [
        {
          "indexed": true,
          "internalType": "bytes32",
          "name": "marketId",
          "type": "bytes32"
        },
        {
          "indexed": false,
          "internalType": "uint256",
          "name": "timestamp",
          "type": "uint256"
        }
      ],
      "name": "InterestAccrued",
      "type": "event"
    },
    {
      "anonymous": false,
      "inputs": [
        {
          "indexed": true,
          "internalType": "bytes32",
          "name": "marketId",
          "type": "bytes32"
        },
        {
          "indexed": true,
          "internalType": "address",
          "name": "borrower",
          "type": "address"
        },
        {
          "indexed": true,
          "internalType": "address",
          "name": "liquidator",
          "type": "address"
        },
        {
          "indexed": false,
          "internalType": "uint256",
          "name": "seizedAssets",
          "type": "uint256"
        }
      ],
      "name": "Liquidated",
      "type": "event"
    },
    {
      "anonymous": false,
      "inputs": [
        {
          "indexed": true,
          "internalType": "bytes32",
          "name": "marketId",
          "type": "bytes32"
        },
        {
          "components": [
            {
              "internalType": "address",
              "name": "loanToken",
              "type": "address"
            },
            {
              "internalType": "address",
              "name": "collateralToken",
              "type": "address"
            },
            {
              "internalType": "address",
              "name": "oracle",
              "type": "address"
            },
            {
              "internalType": "uint128",
              "name": "lltv",
              "type": "uint128"
            }
          ],
          "indexed": false,
          "internalType": "struct IBlackPools.MarketParams",
          "name": "params",
          "type": "tuple"
        }
      ],
      "name": "MarketCreated",
      "type": "event"
    },
    {
      "anonymous": false,
      "inputs": [
        {
          "indexed": true,
          "internalType": "bytes32",
          "name": "marketId",
          "type": "bytes32"
        },
        {
          "indexed": true,
          "internalType": "address",
          "name": "user",
          "type": "address"
        },
        {
          "indexed": false,
          "internalType": "uint256",
          "name": "amount",
          "type": "uint256"
        }
      ],
      "name": "Repaid",
      "type": "event"
    },
    {
      "anonymous": false,
      "inputs": [
        {
          "indexed": true,
          "internalType": "bytes32",
          "name": "marketId",
          "type": "bytes32"
        },
        {
          "indexed": true,
          "internalType": "address",
          "name": "caller",
          "type": "address"
        },
        {
          "indexed": true,
          "internalType": "address",
          "name": "onBehalfOf",
          "type": "address"
        }
      ],
      "name": "Supplied",
      "type": "event"
    },
    {
      "anonymous": false,
      "inputs": [
        {
          "indexed": true,
          "internalType": "bytes32",
          "name": "marketId",
          "type": "bytes32"
        },
        {
          "indexed": true,
          "internalType": "address",
          "name": "caller",
          "type": "address"
        },
        {
          "indexed": true,
          "internalType": "address",
          "name": "receiver",
          "type": "address"
        }
      ],
      "name": "Withdrawn",
      "type": "event"
    },
    {
      "inputs": [
        {
          "components": [
            {
              "internalType": "address",
              "name": "loanToken",
              "type": "address"
            },
            {
              "internalType": "address",
              "name": "collateralToken",
              "type": "address"
            },
            {
              "internalType": "address",
              "name": "oracle",
              "type": "address"
            },
            {
              "internalType": "uint128",
              "name": "lltv",
              "type": "uint128"
            }
          ],
          "internalType": "struct IBlackPools.MarketParams",
          "name": "params",
          "type": "tuple"
        },
        {
          "components": [
            {
              "internalType": "uint256",
              "name": "ctHash",
              "type": "uint256"
            },
            {
              "internalType": "uint8",
              "name": "securityZone",
              "type": "uint8"
            },
            {
              "internalType": "uint8",
              "name": "utype",
              "type": "uint8"
            },
            {
              "internalType": "bytes",
              "name": "signature",
              "type": "bytes"
            }
          ],
          "internalType": "struct InEuint128",
          "name": "encryptedRate",
          "type": "tuple"
        },
        {
          "internalType": "uint256",
          "name": "plainRate",
          "type": "uint256"
        }
      ],
      "name": "accrueInterest",
      "outputs": [],
      "stateMutability": "nonpayable",
      "type": "function"
    },
    {
      "inputs": [
        {
          "components": [
            {
              "internalType": "address",
              "name": "loanToken",
              "type": "address"
            },
            {
              "internalType": "address",
              "name": "collateralToken",
              "type": "address"
            },
            {
              "internalType": "address",
              "name": "oracle",
              "type": "address"
            },
            {
              "internalType": "uint128",
              "name": "lltv",
              "type": "uint128"
            }
          ],
          "internalType": "struct IBlackPools.MarketParams",
          "name": "params",
          "type": "tuple"
        },
        {
          "components": [
            {
              "internalType": "uint256",
              "name": "ctHash",
              "type": "uint256"
            },
            {
              "internalType": "uint8",
              "name": "securityZone",
              "type": "uint8"
            },
            {
              "internalType": "uint8",
              "name": "utype",
              "type": "uint8"
            },
            {
              "internalType": "bytes",
              "name": "signature",
              "type": "bytes"
            }
          ],
          "internalType": "struct InEuint128",
          "name": "encryptedBorrowAmount",
          "type": "tuple"
        },
        {
          "internalType": "uint256",
          "name": "plainAmount",
          "type": "uint256"
        },
        {
          "internalType": "address",
          "name": "user",
          "type": "address"
        },
        {
          "internalType": "address",
          "name": "receiver",
          "type": "address"
        }
      ],
      "name": "borrow",
      "outputs": [],
      "stateMutability": "nonpayable",
      "type": "function"
    },
    {
      "inputs": [
        {
          "components": [
            {
              "internalType": "address",
              "name": "loanToken",
              "type": "address"
            },
            {
              "internalType": "address",
              "name": "collateralToken",
              "type": "address"
            },
            {
              "internalType": "address",
              "name": "oracle",
              "type": "address"
            },
            {
              "internalType": "uint128",
              "name": "lltv",
              "type": "uint128"
            }
          ],
          "internalType": "struct IBlackPools.MarketParams",
          "name": "params",
          "type": "tuple"
        }
      ],
      "name": "createMarket",
      "outputs": [],
      "stateMutability": "nonpayable",
      "type": "function"
    },
    {
      "inputs": [
        {
          "internalType": "bytes32",
          "name": "mid",
          "type": "bytes32"
        }
      ],
      "name": "idToMarketParams",
      "outputs": [
        {
          "components": [
            {
              "internalType": "address",
              "name": "loanToken",
              "type": "address"
            },
            {
              "internalType": "address",
              "name": "collateralToken",
              "type": "address"
            },
            {
              "internalType": "address",
              "name": "oracle",
              "type": "address"
            },
            {
              "internalType": "uint128",
              "name": "lltv",
              "type": "uint128"
            }
          ],
          "internalType": "struct IBlackPools.MarketParams",
          "name": "",
          "type": "tuple"
        }
      ],
      "stateMutability": "view",
      "type": "function"
    },
    {
      "inputs": [
        {
          "internalType": "bytes32",
          "name": "mid",
          "type": "bytes32"
        }
      ],
      "name": "isMarketCreated",
      "outputs": [
        {
          "internalType": "bool",
          "name": "",
          "type": "bool"
        }
      ],
      "stateMutability": "view",
      "type": "function"
    },
    {
      "inputs": [
        {
          "components": [
            {
              "internalType": "address",
              "name": "loanToken",
              "type": "address"
            },
            {
              "internalType": "address",
              "name": "collateralToken",
              "type": "address"
            },
            {
              "internalType": "address",
              "name": "oracle",
              "type": "address"
            },
            {
              "internalType": "uint128",
              "name": "lltv",
              "type": "uint128"
            }
          ],
          "internalType": "struct IBlackPools.MarketParams",
          "name": "params",
          "type": "tuple"
        },
        {
          "internalType": "address",
          "name": "borrower",
          "type": "address"
        },
        {
          "components": [
            {
              "internalType": "uint256",
              "name": "ctHash",
              "type": "uint256"
            },
            {
              "internalType": "uint8",
              "name": "securityZone",
              "type": "uint8"
            },
            {
              "internalType": "uint8",
              "name": "utype",
              "type": "uint8"
            },
            {
              "internalType": "bytes",
              "name": "signature",
              "type": "bytes"
            }
          ],
          "internalType": "struct InEuint128",
          "name": "encryptedSeizedAssets",
          "type": "tuple"
        },
        {
          "internalType": "uint256",
          "name": "plainSeizedAssets",
          "type": "uint256"
        }
      ],
      "name": "liquidate",
      "outputs": [],
      "stateMutability": "nonpayable",
      "type": "function"
    },
    {
      "inputs": [
        {
          "internalType": "bytes32",
          "name": "mid",
          "type": "bytes32"
        }
      ],
      "name": "market",
      "outputs": [
        {
          "components": [
            {
              "internalType": "euint128",
              "name": "totalSupplyAssets",
              "type": "uint256"
            },
            {
              "internalType": "euint128",
              "name": "totalBorrowAssets",
              "type": "uint256"
            },
            {
              "internalType": "euint128",
              "name": "totalSupplyShares",
              "type": "uint256"
            },
            {
              "internalType": "euint128",
              "name": "totalBorrowShares",
              "type": "uint256"
            },
            {
              "internalType": "uint256",
              "name": "lastUpdate",
              "type": "uint256"
            },
            {
              "internalType": "uint128",
              "name": "fee",
              "type": "uint128"
            },
            {
              "internalType": "uint256",
              "name": "plainTotalBorrow",
              "type": "uint256"
            }
          ],
          "internalType": "struct IBlackPools.Market",
          "name": "",
          "type": "tuple"
        }
      ],
      "stateMutability": "view",
      "type": "function"
    },
    {
      "inputs": [
        {
          "internalType": "bytes32",
          "name": "mid",
          "type": "bytes32"
        },
        {
          "internalType": "address",
          "name": "user",
          "type": "address"
        }
      ],
      "name": "position",
      "outputs": [
        {
          "components": [
            {
              "internalType": "euint128",
              "name": "supplyShares",
              "type": "uint256"
            },
            {
              "internalType": "euint128",
              "name": "borrowShares",
              "type": "uint256"
            },
            {
              "internalType": "euint128",
              "name": "collateral",
              "type": "uint256"
            },
            {
              "internalType": "uint256",
              "name": "plainCollateral",
              "type": "uint256"
            },
            {
              "internalType": "uint256",
              "name": "plainBorrow",
              "type": "uint256"
            }
          ],
          "internalType": "struct IBlackPools.Position",
          "name": "",
          "type": "tuple"
        }
      ],
      "stateMutability": "view",
      "type": "function"
    },
    {
      "inputs": [
        {
          "components": [
            {
              "internalType": "address",
              "name": "loanToken",
              "type": "address"
            },
            {
              "internalType": "address",
              "name": "collateralToken",
              "type": "address"
            },
            {
              "internalType": "address",
              "name": "oracle",
              "type": "address"
            },
            {
              "internalType": "uint128",
              "name": "lltv",
              "type": "uint128"
            }
          ],
          "internalType": "struct IBlackPools.MarketParams",
          "name": "params",
          "type": "tuple"
        },
        {
          "components": [
            {
              "internalType": "uint256",
              "name": "ctHash",
              "type": "uint256"
            },
            {
              "internalType": "uint8",
              "name": "securityZone",
              "type": "uint8"
            },
            {
              "internalType": "uint8",
              "name": "utype",
              "type": "uint8"
            },
            {
              "internalType": "bytes",
              "name": "signature",
              "type": "bytes"
            }
          ],
          "internalType": "struct InEuint128",
          "name": "encryptedRepayAmount",
          "type": "tuple"
        },
        {
          "internalType": "uint256",
          "name": "plainAmount",
          "type": "uint256"
        },
        {
          "internalType": "address",
          "name": "user",
          "type": "address"
        }
      ],
      "name": "repay",
      "outputs": [],
      "stateMutability": "nonpayable",
      "type": "function"
    },
    {
      "inputs": [
        {
          "components": [
            {
              "internalType": "address",
              "name": "loanToken",
              "type": "address"
            },
            {
              "internalType": "address",
              "name": "collateralToken",
              "type": "address"
            },
            {
              "internalType": "address",
              "name": "oracle",
              "type": "address"
            },
            {
              "internalType": "uint128",
              "name": "lltv",
              "type": "uint128"
            }
          ],
          "internalType": "struct IBlackPools.MarketParams",
          "name": "params",
          "type": "tuple"
        },
        {
          "components": [
            {
              "internalType": "uint256",
              "name": "ctHash",
              "type": "uint256"
            },
            {
              "internalType": "uint8",
              "name": "securityZone",
              "type": "uint8"
            },
            {
              "internalType": "uint8",
              "name": "utype",
              "type": "uint8"
            },
            {
              "internalType": "bytes",
              "name": "signature",
              "type": "bytes"
            }
          ],
          "internalType": "struct InEuint128",
          "name": "encryptedAssets",
          "type": "tuple"
        },
        {
          "internalType": "uint256",
          "name": "plainAssets",
          "type": "uint256"
        },
        {
          "internalType": "address",
          "name": "onBehalfOf",
          "type": "address"
        }
      ],
      "name": "supply",
      "outputs": [],
      "stateMutability": "nonpayable",
      "type": "function"
    },
    {
      "inputs": [
        {
          "components": [
            {
              "internalType": "address",
              "name": "loanToken",
              "type": "address"
            },
            {
              "internalType": "address",
              "name": "collateralToken",
              "type": "address"
            },
            {
              "internalType": "address",
              "name": "oracle",
              "type": "address"
            },
            {
              "internalType": "uint128",
              "name": "lltv",
              "type": "uint128"
            }
          ],
          "internalType": "struct IBlackPools.MarketParams",
          "name": "params",
          "type": "tuple"
        },
        {
          "components": [
            {
              "internalType": "uint256",
              "name": "ctHash",
              "type": "uint256"
            },
            {
              "internalType": "uint8",
              "name": "securityZone",
              "type": "uint8"
            },
            {
              "internalType": "uint8",
              "name": "utype",
              "type": "uint8"
            },
            {
              "internalType": "bytes",
              "name": "signature",
              "type": "bytes"
            }
          ],
          "internalType": "struct InEuint128",
          "name": "encryptedCollateral",
          "type": "tuple"
        },
        {
          "internalType": "uint256",
          "name": "plainCollateral",
          "type": "uint256"
        },
        {
          "internalType": "address",
          "name": "user",
          "type": "address"
        }
      ],
      "name": "supplyCollateral",
      "outputs": [],
      "stateMutability": "nonpayable",
      "type": "function"
    },
    {
      "inputs": [
        {
          "components": [
            {
              "internalType": "address",
              "name": "loanToken",
              "type": "address"
            },
            {
              "internalType": "address",
              "name": "collateralToken",
              "type": "address"
            },
            {
              "internalType": "address",
              "name": "oracle",
              "type": "address"
            },
            {
              "internalType": "uint128",
              "name": "lltv",
              "type": "uint128"
            }
          ],
          "internalType": "struct IBlackPools.MarketParams",
          "name": "params",
          "type": "tuple"
        },
        {
          "components": [
            {
              "internalType": "uint256",
              "name": "ctHash",
              "type": "uint256"
            },
            {
              "internalType": "uint8",
              "name": "securityZone",
              "type": "uint8"
            },
            {
              "internalType": "uint8",
              "name": "utype",
              "type": "uint8"
            },
            {
              "internalType": "bytes",
              "name": "signature",
              "type": "bytes"
            }
          ],
          "internalType": "struct InEuint128",
          "name": "encryptedShares",
          "type": "tuple"
        },
        {
          "internalType": "uint256",
          "name": "plainShares",
          "type": "uint256"
        },
        {
          "internalType": "address",
          "name": "user",
          "type": "address"
        },
        {
          "internalType": "address",
          "name": "receiver",
          "type": "address"
        }
      ],
      "name": "withdraw",
      "outputs": [],
      "stateMutability": "nonpayable",
      "type": "function"
    },
    {
      "inputs": [
        {
          "components": [
            {
              "internalType": "address",
              "name": "loanToken",
              "type": "address"
            },
            {
              "internalType": "address",
              "name": "collateralToken",
              "type": "address"
            },
            {
              "internalType": "address",
              "name": "oracle",
              "type": "address"
            },
            {
              "internalType": "uint128",
              "name": "lltv",
              "type": "uint128"
            }
          ],
          "internalType": "struct IBlackPools.MarketParams",
          "name": "params",
          "type": "tuple"
        },
        {
          "components": [
            {
              "internalType": "uint256",
              "name": "ctHash",
              "type": "uint256"
            },
            {
              "internalType": "uint8",
              "name": "securityZone",
              "type": "uint8"
            },
            {
              "internalType": "uint8",
              "name": "utype",
              "type": "uint8"
            },
            {
              "internalType": "bytes",
              "name": "signature",
              "type": "bytes"
            }
          ],
          "internalType": "struct InEuint128",
          "name": "encryptedAssets",
          "type": "tuple"
        },
        {
          "internalType": "uint256",
          "name": "plainAssets",
          "type": "uint256"
        },
        {
          "internalType": "address",
          "name": "onBehalfOf",
          "type": "address"
        },
        {
          "internalType": "address",
          "name": "receiver",
          "type": "address"
        }
      ],
      "name": "withdrawCollateral",
      "outputs": [],
      "stateMutability": "nonpayable",
      "type": "function"
    }
  ],
  "bytecode": "0x6080806040523460395760017f9b779b17422d0df92223018b32b4d1fa46e071723d6817e2486d003becc55f00556128ae908161003e8239f35b5f80fdfe608060409080825260049081361015610016575f80fd5b5f3560e01c908163207f8d15146118c3575080632c3c9157146118315780634f9df575146115005780635b14c03c146112ae5780635c60e39a146111cb5780635e432b6c146110665780636e62e90d14610eee57806383a896ed146109c757806393c520621461090d578063d0e3f0b2146107c2578063eadd70e414610629578063f5bd28bf146103fb5763fcd4ce9a146100af575f80fd5b346102a75760803660031901126102a7576100c8611e6d565b6100d136611ae4565b805190926001600160a01b039290918316156103b95760209383858201511615610378576001600160801b0390816060820151166001811015908161036b575b5015610328578301518416156102ed5761013261012d36611ae4565b611e9c565b94855f525f815282845f2001546102ab5761014b6127e5565b61015481612009565b865f525f8252845f20556101666127e5565b61016f81612009565b865f525f82526001855f2001556101846127e5565b61018d81612009565b865f525f82526002855f20015560056101a46127e5565b6101ad81612009565b875f525f8352855f209060038201554285820155016001600160801b0319906103e88282541617905560028252845f209335938685168095036102a7576003906bffffffffffffffffffffffff60a01b86818354161782556001820189610212611dab565b1682825416179055600282019089610228611d95565b169082541617905501906064359384168094036102a7578154168317905583519283528461025461192a565b16908301526044359384168094036102a7577f7e48008f9e8d8dec74d6546a2620750b651cbf4b45dbf8b74d4e5f21df89f4ed936080938301526060820152a260015f8051602061285983398151915255005b5f80fd5b9050606492519162461bcd60e51b8352820152601960248201527f426c61636b506f6f6c733a206d61726b657420657869737473000000000000006044820152fd5b5083606492519162461bcd60e51b835282015260166024820152754d61726b65744c69623a207a65726f206f7261636c6560501b6044820152fd5b835162461bcd60e51b8152808401879052601760248201527f4d61726b65744c69623a20696e76616c6964206c6c74760000000000000000006044820152606490fd5b61270f915011155f610111565b508380606493519262461bcd60e51b845283015260248201527f4d61726b65744c69623a207a65726f20636f6c6c61746572616c20746f6b656e6044820152fd5b6020606492519162461bcd60e51b8352820152601a60248201527f4d61726b65744c69623a207a65726f206c6f616e20746f6b656e0000000000006044820152fd5b5090346102a75761040b366119b9565b9492939080929161041a611e6d565b6104243687611b50565b61042d90611e9c565b94855f526020935f855281835f200154151561044890611bb2565b6001600160a01b0397889061045c90611dc1565b16843033610469936125b8565b3661047391611c2d565b61047c90611ec5565b9761048689612009565b61048f8961245e565b61049981886124a5565b865f525f855260019880808b865f200154906104b491612622565b895f525f8852855f20908c82015560030154906104d091612622565b885f525f8752845f2060030155898652835f2098821698895f52865289845f200154906104fc91612622565b875f52898652835f20895f52865289845f200155865f525f855288835f20015461052581612009565b61052e9061245e565b865f525f8552825f206003015461054481612009565b61054d9061245e565b865f52888552825f20885f52855288835f2001549061056b916122bc565b5f868152808552829020600601547fcc3ff8d8156b894c85ad2241719a685e35a5f7b59f6b5e9cf619ad2ff743679f9584821115610621576105ac91611bfe565b865f525f85526006835f200155878452815f20875f5284528281835f200154115f1461061a57855f52878452815f20875f5284526105ef8382845f200154611bfe565b905b865f52888552825f20885f528552825f20015551908152a35f8051602061285983398151915255005b5f906105f1565b50505f6105ac565b50346102a75761063836611954565b92939590839291610647611e6d565b6106513689611b50565b61065a90611e9c565b978897885f526020925f845281815f200154151561067790611bb2565b6001600160a01b0398899580871691610691338414611cf1565b8c5f5260019d8e95868952855f20855f5289528a865f2060030154906106b691611bfe565b9687925f528952855f20855f528952855f200154366106d59089611b50565b916106df92612300565b6106e890611d3d565b366106f291611c2d565b6106fb90611ec5565b61070481612009565b61070d8161245e565b8c5f528d8752835f20835f528752835f20600201549061072c91612622565b8c5f528d8752835f20835f528752835f20600201558b5f528c8652825f20825f528652825f206002015490610760916122bc565b8a5f528b8552815f20905f5284525f20600301550161077e90611dc1565b16916107899261253a565b169033907f40a241cb72a8847dbda7d7618f5789ed6f3e350564751bc933ae8448dd2c2f095f80a45f8051602061285983398151915255005b50346102a7577f524462514e6794a185bbb619614133d7f965efc90f1bde70de30a81e75f9833e61083a61012d93610859936108d16108226108a061086561086061080c366119b9565b96819e849e939461081b611e6d565b3690611b50565b9c8d5f5260209b8c9a5f8c528c5f2001541515611bb2565b6001600160a01b03998a9161084f9101611dc1565b16309033906125b8565b3690611c2d565b611ec5565b61086e81612009565b6108778161245e565b610881838a6124a5565b885f5260018752855f2094831694855f5287526002865f200154612219565b875f5260018652845f20845f5286526002855f200155865f5260018552835f20835f5285526002845f2001546122bc565b845f5260018352815f20905f5282526003815f20016108f1868254611ce4565b9055519384523393a360015f8051602061285983398151915255005b50346102a757816003193601126102a75760a09161092961192a565b5f6080835161093781611a5a565b8281528260208201528285820152826060820152015282355f526001602052815f2090600180861b03165f52602052805f2081519161097583611a5a565b8154938484526001830154602085019081526080600285015492848701938452600386015495606088019687520154950194855282519586525160208601525190840152516060830152516080820152f35b5090346102a7576003199036820160e081126102a7576080136102a7576084356001600160a01b03818116918281036102a75760a4359467ffffffffffffffff86116102a75760809086360301126102a75760c43593610a25611e6d565b610a3161012d36611ae4565b92835f526020925f8452610a4b89845f2001541515611bb2565b845f52600197888552835f20875f528552600390610a8b82865f200154885f528b8852865f208a5f5288528c875f20015490610a8636611ae4565b612300565b610eab5790610aa26108608c949336908601611c2d565b91610aac83612009565b610ab58361245e565b60a085610ac0611d95565b1687519d8e8092633fabe5a360e21b82525afa9b8c15610ea1575f9c610e5c575b50610b08610b026001600160801b038e610afc5f8213611e21565b1661277c565b84612073565b610b76875191610b1783611a8a565b5f8352898951610b2681611a0e565b8681526060368383013768056bc75e2d631000009485610b4583612817565b526006610b5183612838565b525f610b5c83612848565b528b51631888debd60e01b815294859283928c84016126f8565b03815f73ea30c4b8b44078bbf8a6ef5b9f1ec1626c7848d95af1918215610e5257928e9f8e9f94938e9f9d9e938f955f92610e04575b508e7f4ce4463ecdc8d09c6117778cecdf5ea18bb582469e1e389e827766b2aff334779f9b99978f8f90610dd59f9d9b98958398610bfe610cff9c99610bf8610c1a94610c7e9a612176565b97611cd1565b049c885f52848352835f20885f5283526002845f200154612622565b875f52838252825f20875f5282526002835f200155865f525f8152610c5e84848d610c4a8382885f200154612622565b8b5f525f8652865f20918201550154612622565b875f525f825283835f200155828152815f2090865f52525f200154612622565b915f52828d528b5f20905f528c52818b5f2001558c5f52808b528d8a5f20905f528b52610cb18260028c5f2001546122bc565b8c5f525f8b52610cce848b5f200154610cc981612009565b61245e565b8c5f525f8b52610ce6818b5f200154610cc981612009565b8c5f52808b528d8a5f20905f528b52895f2001546122bc565b895f528c8852865f208b5f5288528481885f200154115f14610dfd57895f528c8852865f208b5f528852610d388582895f200154611bfe565b905b8a5f528d8952875f208c5f528952875f200155885f525f87526006865f200154818082115f14610df557610d6d91611bfe565b895f525f88526006875f2001558b8752855f208a5f5287528082875f200154115f14610ded57610db090895f528c8852865f208b5f52885282875f200154611bfe565b905b885f528b8752855f208a5f528752855f200155610dcd611dab565b16339061253a565b519485523394a45f8051602061285983398151915255005b505f90610db2565b50505f610d6d565b5f90610d3a565b95509d50509896949150969492508982813d8311610e4b575b610e278183611ac2565b810103126102a75790518d9a959794969395929491938f938d938f9390918e610bac565b503d610e1d565b89513d5f823e3d90fd5b6001600160801b039c50610b02610e8d610b089260a03d60a011610e9a575b610e858183611ac2565b810190611dec565b50505090509d5050610ae1565b503d610e7b565b86513d5f823e3d90fd5b845162461bcd60e51b8152808c01879052601c60248201527f426c61636b506f6f6c733a20706f736974696f6e206865616c746879000000006044820152606490fd5b50346102a7575f61102b610ff79361102561102094610f0c36611954565b98899694939a92979195610f1e611e6d565b610f2b61012d3687611b50565b9c8d97888452610f4660209385855286862001541515611bb2565b6001600160a01b039d8e99828b1691610fd890610f6c9061086090610859338714611cf1565b610f7581612009565b610f7e8161245e565b828852600187528888208489528752610f9a818a8a2054612622565b83895260018852898920858a52885289892055828852878752610fc38160028b8b200154612622565b83895288885289892090600282015554612622565b90865285855286862055600184528585209085528352848420546122bc565b8c825281815261101060028484200154610cc981612009565b8c8252525f2054610cc981612009565b611dc1565b1661253a565b169033907ff54b4f27d203e4cd3636b5793502a2ce0bd871ba82f3635bac150d7b7a6145575f80a460015f8051602061285983398151915255005b50346102a75761119261086061084f93610859936111396110cb611089366119b9565b97929990611095611e6d565b6110a261012d368d611b50565b9a8b5f526110bb6020985f8a528a5f2001541515611bb2565b6001600160a01b039c8d91611dc1565b6110d481612009565b6110dd8161245e565b6110e785886124a5565b865f525f835261111381600261110082885f2054612219565b8a5f525f8752875f209081550154612219565b875f525f84526002855f20015560018352835f2097851697885f528352835f2054612219565b855f5260018252825f20875f528252825f2055845f525f8152611162825f2054610cc981612009565b845f525f815261117b6002835f200154610cc981612009565b845f5260018152815f2090865f52525f20546122bc565b33907f98370caee4b22ff3730559563f4b4e154dac74df7ac10b24431dc2403a8cf0b35f80a460015f8051602061285983398151915255005b5090346102a75760203660031901126102a75760e0915f60c083516111ef81611a3e565b82815282602082015282858201528260608201528260808201528260a0820152015280355f525f602052815f209082519161122983611a3e565b805493848452600182015492602085019384526002830154918086019283526003840154916060870192835284015492608087019384526001600160801b039560c06006886005890154169760a08b019889520154980197885282519889525160208901525190870152516060860152516080850152511660a08301525160c0820152f35b50346102a7576112bd36611954565b8281939792966112cb611e6d565b6112d53688611b50565b6112de90611e9c565b96875f525f60205281855f20015415156112f790611bb2565b6001600160a01b0389811699909788939091611314338d14611cf1565b8a5f526001602052875f208c5f526020528582895f2001549061133691611ce4565b928b5f526001602052885f208d5f52602052885f2060030154843661135b9088611b50565b9161136592612300565b61136e90611d3d565b3661137891611c2d565b61138190611ec5565b61138a81612009565b6113938161245e565b61139d828d6124a5565b8b5f525f60205280808a5f2060030154906113b791612219565b8d5f525f6020528a5f2090600382015560010154906113d591612219565b8c5f525f602052895f20600101556001602052885f208d5f52602052885f20600101549061140291612219565b8b5f526001602052885f208d5f52602052885f20600101558a5f525f602052875f206003015461143181612009565b61143a9061245e565b8a5f525f602052875f206001015461145181612009565b61145a9061245e565b8a5f526001602052875f208c5f52602052875f20600101549061147c916122bc565b895f526001602052865f208b5f52602052865f200155875f525f602052845f20600601838154906114ac91611ce4565b90556114b790611dc1565b16916114c29261253a565b51948552169260207fa521cb8d5f0d10213e74060f64c5398285cfd3de2c40344e6264cceea84dc8c791a460015f8051602061285983398151915255005b5090346102a75760031936810160c081126102a7576080136102a7576084359067ffffffffffffffff82116102a75760809082360301126102a757611543611e6d565b61154f61012d36611ae4565b91825f526020915f835261156985835f2001541515611bb2565b835f525f835261157e85835f20015442611bfe565b9081156117ee576108606115959136908801611c2d565b9061159f82612009565b6115db6001600160801b03926115d56115b985851661277c565b6115c281612009565b885f525f88526001875f20015492612073565b90612073565b8351906115e782611a8a565b5f825284516115f581611a0e565b6003815260603688830137866b033b2e3c9fd0803ce8000000938461161984612817565b52600661162584612838565b525f61163084612848565b528751631888debd60e01b8152928391829161164e91838f016126f8565b03815f73ea30c4b8b44078bbf8a6ef5b9f1ec1626c7848d95af1908115610ea1575f916117bf575b50611684906116ab92612176565b9261168e84612009565b875f525f87526116a660a4356006885f200154611cd1565b611cd1565b04916103e88084029084820414841517156117ac5796611748611763936117336117178588610afc6117127f0af10eb295a95d39da2bdd3886bc7184c16b2dd4bff03d6879ce1ec5e7435c9d9e9f9961170b61271060069c048095611bfe565b931661277c565b612009565b9161172183612009565b8b5f525f8a526001895f200154612219565b8a5f525f8952875f2090600182015554612219565b90885f525f8752855f20918255429082015501918254611ce4565b9055835f525f825261177e6001825f200154610cc981612009565b835f525f8252611794815f2054610cc981612009565b51428152a260015f8051602061285983398151915255005b601188634e487b7160e01b5f525260245ffd5b90508681813d83116117e7575b6117d68183611ac2565b810103126102a757516116ab611676565b503d6117cc565b825162461bcd60e51b8152808701859052601b60248201527f426c61636b506f6f6c733a206e6f2074696d6520656c617073656400000000006044820152606490fd5b5090346102a75760203660031901126102a7576118bf915f6060835161185681611a0e565b82815282602082015282858201520152355f526002602052805f20906001600160801b03600382519361188885611a0e565b80546001600160a01b03908116865260018201548116602087015260028201541684860152015416606083015251918291826118eb565b0390f35b919050346102a75760203660031901126102a75760209281355f525f84525f20015415158152f35b91909160606001600160801b0381608084019560018060a01b038082511686528060208301511660208701526040820151166040860152015116910152565b602435906001600160a01b03821682036102a757565b35906001600160a01b03821682036102a757565b9060031980830161010081126102a7576080136102a7576004926084359167ffffffffffffffff83116102a757826080920301126102a7576004019060a435906001600160a01b039060c43582811681036102a7579160e43590811681036102a75790565b9060031980830160e081126102a7576080136102a7576004926084359167ffffffffffffffff83116102a757826080920301126102a7576004019060a4359060c4356001600160a01b03811681036102a75790565b6080810190811067ffffffffffffffff821117611a2a57604052565b634e487b7160e01b5f52604160045260245ffd5b60e0810190811067ffffffffffffffff821117611a2a57604052565b60a0810190811067ffffffffffffffff821117611a2a57604052565b67ffffffffffffffff8111611a2a57604052565b6020810190811067ffffffffffffffff821117611a2a57604052565b6060810190811067ffffffffffffffff821117611a2a57604052565b90601f8019910116810190811067ffffffffffffffff821117611a2a57604052565b60809060031901126102a75760405190611afd82611a0e565b816001600160a01b0360043581811681036102a757825260243581811681036102a757602083015260443590811681036102a7576040820152606435906001600160801b03821682036102a75760600152565b91908260809103126102a757604051611b6881611a0e565b60608193611b7581611940565b8352611b8360208201611940565b6020840152611b9460408201611940565b60408401520135906001600160801b03821682036102a75760600152565b15611bb957565b60405162461bcd60e51b815260206004820152601c60248201527f426c61636b506f6f6c733a206d61726b6574206e6f7420666f756e64000000006044820152606490fd5b91908203918211611c0b57565b634e487b7160e01b5f52601160045260245ffd5b359060ff821682036102a757565b91906080838203126102a75760405192611c4684611a0e565b83813581526020611c58818401611c1f565b81830152611c6860408401611c1f565b6040830152606083013567ffffffffffffffff938482116102a757019084601f830112156102a7578135938411611a2a5760405194611cb0601f8601601f1916830187611ac2565b8486528185840101116102a75783606094825f940183880137850101520152565b81810292918115918404141715611c0b57565b91908201809211611c0b57565b15611cf857565b60405162461bcd60e51b815260206004820152601a60248201527f426c61636b506f6f6c733a206e6f7420617574686f72697a65640000000000006044820152606490fd5b15611d4457565b60405162461bcd60e51b815260206004820152602360248201527f426c61636b506f6f6c733a20696e73756666696369656e7420636f6c6c6174656044820152621c985b60ea1b6064820152608490fd5b6044356001600160a01b03811681036102a75790565b6024356001600160a01b03811681036102a75790565b356001600160a01b03811681036102a75790565b519069ffffffffffffffffffff821682036102a757565b908160a09103126102a757611e0081611dd5565b91602082015191604081015191611e1e608060608401519301611dd5565b90565b15611e2857565b60405162461bcd60e51b815260206004820152601c60248201527f426c61636b506f6f6c733a20626164206f7261636c65207072696365000000006044820152606490fd5b5f805160206128598339815191526002815414611e8a5760029055565b604051633ee5aeb560e01b8152600490fd5b604051611ebf81611eb16020820194856118eb565b03601f198101835282611ac2565b51902090565b60409060ff828201511660068103611feb5750606060ff91835190611ee982611a0e565b5f825282602093835f86809601525f88820152015260e48151836060878286015116940151885192611f1a84611a0e565b83528183019485528789840160068152606085019283528a51998a9788966313fce3b160e11b88528d6004890152516044880152511660648601525116608484015251608060a484015280519182918260c4860152018484015e5f838284010152336024830152601f801991011681010301815f73ea30c4b8b44078bbf8a6ef5b9f1ec1626c7848d95af1928315611fe257505f92611fb857505090565b90809250813d8311611fdb575b611fcf8183611ac2565b810103126102a7575190565b503d611fc5565b513d5f823e3d90fd5b6044908351906367cf307160e01b8252600482015260066024820152fd5b73ea30c4b8b44078bbf8a6ef5b9f1ec1626c7848d9803b156102a757604051631974142760e21b815260048101929092523060248301525f908290818381604481015b03925af180156120685761205d5750565b61206690611a76565b565b6040513d5f823e3d90fd5b908115612166575b8015612158575b6040519161208f83611aa6565b6002835260403660208501376120a483612817565b526120ae82612838565b5260206120f8604051926120c184611a8a565b5f845261210a6040519485938493631888debd60e01b855260066004860152600f60248601526080604486015260848501906126c5565b838103600319016064850152906126c5565b03815f73ea30c4b8b44078bbf8a6ef5b9f1ec1626c7848d95af1908115612068575f91612135575090565b90506020813d602011612150575b81611fcf60209383611ac2565b3d9150612143565b506121616127e5565b612082565b90506121706127e5565b9061207b565b908115612209575b80156121fb575b6040519161219283611aa6565b6002835260403660208501376121a783612817565b526121b182612838565b5260206120f8604051926121c484611a8a565b5f845261210a6040519485938493631888debd60e01b855260066004860152600d60248601526080604486015260848501906126c5565b506122046127e5565b612185565b90506122136127e5565b9061217e565b9081156122ac575b801561229e575b6040519161223583611aa6565b60028352604036602085013761224a83612817565b5261225482612838565b5260206120f86040519261226784611a8a565b5f845261210a6040519485938493631888debd60e01b855260066004860152600860248601526080604486015260848501906126c5565b506122a76127e5565b612228565b90506122b66127e5565b90612221565b906122c682612009565b6122cf8261245e565b6001600160a01b03811680151590816122f5575b506122ec575050565b6120669161272b565b90503314155f6122e3565b821561245657811561244f57604081810180519151633fabe5a360e21b81529390916001600160a01b039060a0908690600490829085165afa928315612068576004955f94612424575b509060209161235a5f8613611e21565b51166040519586809263313ce56760e01b82525afa938415612068575f946123e2575b5061238c600c9260ff92611cd1565b93160160ff8111611c0b5760ff16604d8111611c0b57600a0a9182156123ce57612710926001600160801b0360606123c8940151169104611cd1565b04101590565b634e487b7160e01b5f52601260045260245ffd5b9093506020813d60201161241c575b816123fe60209383611ac2565b810103126102a757519060ff821682036102a757909261238c61237d565b3d91506123f1565b6020929194506124429060a03d60a011610e9a57610e858183611ac2565b505050905093909161234a565b5050505f90565b505050600190565b73ea30c4b8b44078bbf8a6ef5b9f1ec1626c7848d9803b156102a757604051631974142760e21b815260048101929092523360248301525f9082908183816044810161204c565b5f52600160205260405f2060018060a01b0382165f52602052600260405f20805415612518575b6001810183815415612505575b505001908154156124e8575050565b612066916124f46127e5565b80916124ff82612009565b5561272b565b612511916124f46127e5565b5f836124d9565b612535836125246127e5565b61252d81612009565b80845561272b565b6124cc565b60405163a9059cbb60e01b5f9081526001600160a01b039384166004526024949094529260209060448180855af160015f5114811615612599575b836040521561258357505050565b635274afe760e01b835216600482015260249150fd5b60018115166125af57813b15153d151616612575565b833d5f823e3d90fd5b6040516323b872dd60e01b5f9081526001600160a01b03938416600452938316602452604494909452909160209060648180855af160015f511481161561260c575b836040525f6060521561258357505050565b60018115166125af57813b15153d1516166125fa565b9081156126b5575b80156126a7575b6040519161263e83611aa6565b60028352604036602085013761265383612817565b5261265d82612838565b5260206120f86040519261267084611a8a565b5f845261210a6040519485938493631888debd60e01b855260066004860152600760248601526080604486015260848501906126c5565b506126b06127e5565b612631565b90506126bf6127e5565b9061262a565b9081518082526020808093019301915f5b8281106126e4575050505090565b8351855293810193928101926001016126d6565b909161271d611e1e9360068452601a60208501526080604085015260808401906126c5565b9160608184039101526126c5565b73ea30c4b8b44078bbf8a6ef5b9f1ec1626c7848d991823b156102a757604051631974142760e21b815260048101929092526001600160a01b03166024820152905f9082908183816044810161204c565b602061210a9160405161278e81611a8a565b5f81526040519161279e83611a0e565b60038352606036858501376127b283612817565b5260066127be83612838565b525f6127c983612848565b52604051631888debd60e01b81529384928392600484016126f8565b61210a60206040516127f681611a8a565b5f81526040519061280682611a0e565b60038252606036848401375f6127b2835b8051156128245760200190565b634e487b7160e01b5f52603260045260245ffd5b8051600110156128245760400190565b805160021015612824576060019056fe9b779b17422d0df92223018b32b4d1fa46e071723d6817e2486d003becc55f00a26469706673582212205640be978139b5945662d34457efc70d68361687e8714685925458a081aca02064736f6c63430008190033",
  "linkReferences": {},
  "deployedLinkReferences": {}
}