{
  "_format": "hh-sol-artifact-1",
  "contractName": "BlackPoolsTaskManager",
  "sourceName": "contracts/TaskManager.sol",
  "abi": [
    {
      "inputs": [],
      "stateMutability": "nonpayable",
      "type": "constructor"
    },
    {
      "inputs": [],
      "name": "ECDSAInvalidSignature",
      "type": "error"
    },
    {
      "inputs": [
        {
          "internalType": "uint256",
          "name": "length",
          "type": "uint256"
        }
      ],
      "name": "ECDSAInvalidSignatureLength",
      "type": "error"
    },
    {
      "inputs": [
        {
          "internalType": "bytes32",
          "name": "s",
          "type": "bytes32"
        }
      ],
      "name": "ECDSAInvalidSignatureS",
      "type": "error"
    },
    {
      "inputs": [],
      "name": "InvalidShortString",
      "type": "error"
    },
    {
      "inputs": [
        {
          "internalType": "string",
          "name": "str",
          "type": "string"
        }
      ],
      "name": "StringTooLong",
      "type": "error"
    },
    {
      "anonymous": false,
      "inputs": [],
      "name": "EIP712DomainChanged",
      "type": "event"
    },
    {
      "anonymous": false,
      "inputs": [
        {
          "indexed": true,
          "internalType": "address",
          "name": "user",
          "type": "address"
        },
        {
          "indexed": true,
          "internalType": "address",
          "name": "grantee",
          "type": "address"
        },
        {
          "indexed": false,
          "internalType": "enum BlackPoolsTaskManager.Role",
          "name": "role",
          "type": "uint8"
        },
        {
          "indexed": false,
          "internalType": "uint256",
          "name": "expiresAt",
          "type": "uint256"
        }
      ],
      "name": "PermitIssued",
      "type": "event"
    },
    {
      "anonymous": false,
      "inputs": [
        {
          "indexed": true,
          "internalType": "address",
          "name": "user",
          "type": "address"
        },
        {
          "indexed": true,
          "internalType": "address",
          "name": "grantee",
          "type": "address"
        }
      ],
      "name": "PermitRevoked",
      "type": "event"
    },
    {
      "inputs": [],
      "name": "PERMIT_TYPEHASH",
      "outputs": [
        {
          "internalType": "bytes32",
          "name": "",
          "type": "bytes32"
        }
      ],
      "stateMutability": "view",
      "type": "function"
    },
    {
      "inputs": [],
      "name": "eip712Domain",
      "outputs": [
        {
          "internalType": "bytes1",
          "name": "fields",
          "type": "bytes1"
        },
        {
          "internalType": "string",
          "name": "name",
          "type": "string"
        },
        {
          "internalType": "string",
          "name": "version",
          "type": "string"
        },
        {
          "internalType": "uint256",
          "name": "chainId",
          "type": "uint256"
        },
        {
          "internalType": "address",
          "name": "verifyingContract",
          "type": "address"
        },
        {
          "internalType": "bytes32",
          "name": "salt",
          "type": "bytes32"
        },
        {
          "internalType": "uint256[]",
          "name": "extensions",
          "type": "uint256[]"
        }
      ],
      "stateMutability": "view",
      "type": "function"
    },
    {
      "inputs": [
        {
          "internalType": "address",
          "name": "user",
          "type": "address"
        },
        {
          "internalType": "address",
          "name": "grantee",
          "type": "address"
        }
      ],
      "name": "getPermit",
      "outputs": [
        {
          "components": [
            {
              "internalType": "enum BlackPoolsTaskManager.Role",
              "name": "role",
              "type": "uint8"
            },
            {
              "internalType": "uint256",
              "name": "expiresAt",
              "type": "uint256"
            },
            {
              "internalType": "bytes",
              "name": "granteePublicKey",
              "type": "bytes"
            },
            {
              "internalType": "bool",
              "name": "revoked",
              "type": "bool"
            }
          ],
          "internalType": "struct BlackPoolsTaskManager.Permit",
          "name": "",
          "type": "tuple"
        }
      ],
      "stateMutability": "view",
      "type": "function"
    },
    {
      "inputs": [
        {
          "internalType": "address",
          "name": "user",
          "type": "address"
        },
        {
          "internalType": "address",
          "name": "grantee",
          "type": "address"
        }
      ],
      "name": "isPermitValid",
      "outputs": [
        {
          "internalType": "bool",
          "name": "",
          "type": "bool"
        }
      ],
      "stateMutability": "view",
      "type": "function"
    },
    {
      "inputs": [
        {
          "internalType": "address",
          "name": "",
          "type": "address"
        }
      ],
      "name": "nonces",
      "outputs": [
        {
          "internalType": "uint256",
          "name": "",
          "type": "uint256"
        }
      ],
      "stateMutability": "view",
      "type": "function"
    },
    {
      "inputs": [
        {
          "internalType": "address",
          "name": "grantee",
          "type": "address"
        },
        {
          "internalType": "enum BlackPoolsTaskManager.Role",
          "name": "role",
          "type": "uint8"
        },
        {
          "internalType": "uint256",
          "name": "expiresAt",
          "type": "uint256"
        },
        {
          "internalType": "bytes",
          "name": "granteePublicKey",
          "type": "bytes"
        },
        {
          "internalType": "uint8",
          "name": "v",
          "type": "uint8"
        },
        {
          "internalType": "bytes32",
          "name": "r",
          "type": "bytes32"
        },
        {
          "internalType": "bytes32",
          "name": "s",
          "type": "bytes32"
        }
      ],
      "name": "permit",
      "outputs": [],
      "stateMutability": "nonpayable",
      "type": "function"
    },
    {
      "inputs": [
        {
          "internalType": "address",
          "name": "",
          "type": "address"
        },
        {
          "internalType": "address",
          "name": "",
          "type": "address"
        }
      ],
      "name": "permits",
      "outputs": [
        {
          "internalType": "enum BlackPoolsTaskManager.Role",
          "name": "role",
          "type": "uint8"
        },
        {
          "internalType": "uint256",
          "name": "expiresAt",
          "type": "uint256"
        },
        {
          "internalType": "bytes",
          "name": "granteePublicKey",
          "type": "bytes"
        },
        {
          "internalType": "bool",
          "name": "revoked",
          "type": "bool"
        }
      ],
      "stateMutability": "view",
      "type": "function"
    },
    {
      "inputs": [
        {
          "internalType": "address",
          "name": "grantee",
          "type": "address"
        }
      ],
      "name": "revoke",
      "outputs": [],
      "stateMutability": "nonpayable",
      "type": "function"
    }
  ],
  "bytecode": "0x61016080604052346101425761001481610146565b600a81526020810169426c61636b506f6f6c7360b01b81526040519161003983610146565b6001835260208301603160f81b815261005182610161565b92610120938452610061856102f8565b92610140938452519020938460e05251902091610100938385524660a0526040519360208501917f8b73c3c69bb8fe3d512ecc4cf759cc79239f7b179b0ffacaa9a75d522b39400f8352604086015260608501524660808501523060a085015260a0845260c084019380851060018060401b0386111761012e57846040525190206080523060c052610edb938461042f853960805184610cb7015260a05184610d83015260c05184610c81015260e05184610d0601525183610d2c015251826104f50152518161051f0152f35b634e487b7160e01b5f52604160045260245ffd5b5f80fd5b604081019081106001600160401b0382111761012e57604052565b8051602090818110156101d75750601f825111610199578082519201519080831061018b57501790565b825f19910360031b1b161790565b60448260405192839163305a27a960e01b83528160048401528051918291826024860152018484015e5f828201840152601f01601f19168101030190fd5b906001600160401b03821161012e575f54926001938481811c911680156102ee575b838210146102da57601f81116102a7575b5081601f841160011461024557509282939183925f9461023a575b50501b915f199060031b1c1916175f5560ff90565b015192505f80610225565b919083601f1981165f8052845f20945f905b8883831061028d5750505010610275575b505050811b015f5560ff90565b01515f1960f88460031b161c191690555f8080610268565b858701518855909601959485019487935090810190610257565b5f805284601f845f20920160051c820191601f860160051c015b8281106102cf57505061020a565b5f81550185906102c1565b634e487b7160e01b5f52602260045260245ffd5b90607f16906101f9565b8051602090818110156103225750601f825111610199578082519201519080831061018b57501790565b9192916001600160401b03811161012e5760019182548381811c91168015610424575b828210146102da57601f81116103f1575b5080601f83116001146103915750819293945f92610386575b50505f19600383901b1c191690821b17905560ff90565b015190505f8061036f565b90601f19831695845f52825f20925f905b8882106103da57505083859697106103c2575b505050811b01905560ff90565b01515f1960f88460031b161c191690555f80806103b5565b8087859682949686015181550195019301906103a2565b835f5283601f835f20920160051c820191601f850160051c015b828110610419575050610356565b5f815501849061040b565b90607f169061034556fe6080604090808252600480361015610015575f80fd5b5f3560e01c918263116b28f9146107d55750816330adf81f1461079b5781635c920604146106ea57816374a8f103146106205781637ecebe00146105e957816384b0196e146104de578163900a09111461011d575063c39bad7914610078575f80fd5b346101195780600319360112610119576100fb906100946108c6565b61009c6108dc565b9060018060a01b038091165f526003602052825f2091165f52602052805f209061010d60ff83541692608060018201549360ff60038251946100ec866100e5816002850161096f565b0387610a4c565b015416948151978880986108f2565b60208701528501526080840190610913565b90151560608301520390f35b5f80fd5b9050346101195760e0366003190112610119576101386108c6565b91602435906003821015610119576044356064359467ffffffffffffffff9485871161011957366023880112156101195786810135908682116101195760248801976024833692010111610119576084359660ff8816880361011957335f5260209360028552865f2054906101ae36868d610a7a565b80519087012088517f55eafe83954477cc4f91c756737d108afbd9852ef9147b2417144486fdf73ed88189019081526001600160a01b03938416828c018190529c92909190610200606083018e6108f2565b8a60808301528560a083015260c082015260c0815260e08101818110878211176104cb578b5251902061026992916102609161023a610c7e565b908c519161190160f01b83526002830152602282015260c43591604260a4359220610da9565b90939193610e36565b339116036104885760018091335f526002875201875f20556102a887519a6102908c610a00565b61029a8a8d610a6e565b868c01958887523691610a7a565b92878b0193845260608b01945f8652335f5260038752885f208b5f528752885f209b516003811015610475578c5460ff90911660ff19918216178d559051838d01559351805160028d019490939290841161046257506103088454610937565b601f811161041c575b508690601f8411600114610392579280807f71f8c1ced39dd3b0a8861c59644e095b4a44e036fc03a8823d5bd0003af547109c9d9e9460ff97946003975f94610387575b50501b915f1990861b1c19161790555b019251151591835416911617905561037f835180966108f2565b8401523392a3005b015192505f80610355565b90601f93929319831691855f52885f20925f5b818110610407575092600395927f71f8c1ced39dd3b0a8861c59644e095b4a44e036fc03a8823d5bd0003af547109d9e9f95928360ff9996106103f0575b505050811b019055610365565b01515f1983881b60f8161c191690555f80806103e3565b82840151855593860193928a01928a016103a5565b845f52875f20601f850160051c810191898610610458575b601f0160051c019083905b82811061044d575050610311565b5f815501839061043f565b9091508190610434565b604190634e487b7160e01b5f525260245ffd5b602183634e487b7160e01b5f525260245ffd5b865162461bcd60e51b8152808401869052601e60248201527f5461736b4d616e616765723a20696e76616c6964207369676e617475726500006044820152606490fd5b604188634e487b7160e01b5f525260245ffd5b905034610119575f366003190112610119576105197f0000000000000000000000000000000000000000000000000000000000000000610ac0565b916105437f0000000000000000000000000000000000000000000000000000000000000000610bc0565b815191602091602084019484861067ffffffffffffffff871117610462575061059e826020928761059199989795525f85528151988998600f60f81b8a5260e0868b015260e08a0190610913565b9188830390890152610913565b914660608701523060808701525f60a087015285830360c087015251918281520192915f5b8281106105d257505050500390f35b8351855286955093810193928101926001016105c3565b8234610119576020366003190112610119576020906001600160a01b0361060e6108c6565b165f5260028252805f20549051908152f35b8234610119576020806003193601126101195761063b6108c6565b92335f5260038252825f209360018060a01b031693845f5282526001835f200154156106a9575090600391335f52828152815f2090845f52525f2001600160ff19825416179055337fcd2df39beef3526277e9d1fe08e71693bb0ea02223c6fe2c10fdb5e4e5c448345f80a3005b915162461bcd60e51b815291820152601d60248201527f5461736b4d616e616765723a207065726d6974206e6f7420666f756e640000006044820152606490fd5b82346101195780600319360112610119576020906107066108c6565b61070e6108dc565b9060018060a01b038091165f5260038452825f2091165f528252805f209080519161073883610a00565b61074660ff82541684610a6e565b60ff6003600183015492868601938452845161077081610769816002860161096f565b0382610a4c565b858701520154161592606084159101525142109182610793575b50519015158152f35b91508361078a565b8234610119575f36600319011261011957602090517f55eafe83954477cc4f91c756737d108afbd9852ef9147b2417144486fdf73ed88152f35b8390346101195781600319360112610119576107ef6108c6565b6107f76108dc565b9061080183610a00565b5f83525f606060209482868201528187820152015260018060a01b038091165f5260038352835f2091165f528152815f20916108b981519361084285610a00565b61085060ff82541686610a6e565b60018101549284860193845260ff600382519361087b85610874816002850161096f565b0386610a4c565b838901948552015416936060870194151585526108a28251978789988952880190516108f2565b5190850152516080606085015260a0840190610913565b9051151560808301520390f35b600435906001600160a01b038216820361011957565b602435906001600160a01b038216820361011957565b9060038210156108ff5752565b634e487b7160e01b5f52602160045260245ffd5b805180835260209291819084018484015e5f828201840152601f01601f1916010190565b90600182811c92168015610965575b602083101461095157565b634e487b7160e01b5f52602260045260245ffd5b91607f1691610946565b80545f939261097d82610937565b918282526020936001916001811690815f146109e157506001146109a3575b5050505050565b90939495505f92919252835f2092845f945b8386106109cd57505050500101905f8080808061099c565b8054858701830152940193859082016109b5565b60ff19168685015250505090151560051b010191505f8080808061099c565b6080810190811067ffffffffffffffff821117610a1c57604052565b634e487b7160e01b5f52604160045260245ffd5b6040810190811067ffffffffffffffff821117610a1c57604052565b90601f8019910116810190811067ffffffffffffffff821117610a1c57604052565b60038210156108ff5752565b92919267ffffffffffffffff8211610a1c5760405191610aa4601f8201601f191660200184610a4c565b829481845281830111610119578281602093845f960137010152565b60ff8114610afe5760ff811690601f8211610aec5760405191610ae283610a30565b8252602082015290565b604051632cd44ac360e21b8152600490fd5b506040515f815f5491610b1083610937565b80835292602090600190818116908115610b9c5750600114610b3e575b5050610b3b92500382610a4c565b90565b9150925f80527f290decd9548b62a8d60345a988386fc84ba6bc95484008f6362f93160ef3e563935f925b828410610b845750610b3b9450505081016020015f80610b2d565b85548785018301529485019486945092810192610b69565b91505060209250610b3b94915060ff191682840152151560051b8201015f80610b2d565b60ff8114610be25760ff811690601f8211610aec5760405191610ae283610a30565b506040515f81600191600154610bf781610937565b8084529360209160018116908115610b9c5750600114610c1f575050610b3b92500382610a4c565b91509260015f527fb10e2d527612073b26eecdfd717e6a320cf44b4afac2b0732d9fcbe2b7fa0cf6935f925b828410610c665750610b3b9450505081016020015f80610b2d565b85548785018301529485019486945092810192610c4b565b307f00000000000000000000000000000000000000000000000000000000000000006001600160a01b03161480610d80575b15610cd9577f000000000000000000000000000000000000000000000000000000000000000090565b60405160208101907f8b73c3c69bb8fe3d512ecc4cf759cc79239f7b179b0ffacaa9a75d522b39400f82527f000000000000000000000000000000000000000000000000000000000000000060408201527f000000000000000000000000000000000000000000000000000000000000000060608201524660808201523060a082015260a0815260c0810181811067ffffffffffffffff821117610a1c5760405251902090565b507f00000000000000000000000000000000000000000000000000000000000000004614610cb0565b91907f7fffffffffffffffffffffffffffffff5d576e7357a4501ddfe92f46681b20a08411610e2b579160209360809260ff5f9560405194855216868401526040830152606082015282805260015afa15610e20575f516001600160a01b03811615610e1657905f905f90565b505f906001905f90565b6040513d5f823e3d90fd5b5050505f9160039190565b60048110156108ff5780610e48575050565b60018103610e625760405163f645eedf60e01b8152600490fd5b60028103610e835760405163fce698f760e01b815260048101839052602490fd5b600314610e8d5750565b602490604051906335e2f38360e21b82526004820152fdfea26469706673582212202f2c93100e8e351d9b9130adf1c3ec8ba7b35a8cca897487eecf201f8a7a897b64736f6c63430008190033",
  "linkReferences": {},
  "deployedLinkReferences": {}
}