{
  "_format": "hh-sol-artifact-1",
  "contractName": "MockPool",
  "sourceName": "contracts/MockPool.sol",
  "abi": [
    {
      "inputs": [
        {
          "internalType": "address",
          "name": "token",
          "type": "address"
        }
      ],
      "name": "SafeERC20FailedOperation",
      "type": "error"
    },
    {
      "anonymous": false,
      "inputs": [
        {
          "indexed": true,
          "internalType": "address",
          "name": "asset",
          "type": "address"
        },
        {
          "indexed": true,
          "internalType": "address",
          "name": "user",
          "type": "address"
        },
        {
          "indexed": false,
          "internalType": "uint256",
          "name": "amount",
          "type": "uint256"
        }
      ],
      "name": "Borrow",
      "type": "event"
    },
    {
      "anonymous": false,
      "inputs": [
        {
          "indexed": true,
          "internalType": "address",
          "name": "asset",
          "type": "address"
        },
        {
          "indexed": true,
          "internalType": "address",
          "name": "user",
          "type": "address"
        },
        {
          "indexed": false,
          "internalType": "uint256",
          "name": "amount",
          "type": "uint256"
        }
      ],
      "name": "Repay",
      "type": "event"
    },
    {
      "anonymous": false,
      "inputs": [
        {
          "indexed": true,
          "internalType": "address",
          "name": "asset",
          "type": "address"
        },
        {
          "indexed": true,
          "internalType": "address",
          "name": "user",
          "type": "address"
        },
        {
          "indexed": false,
          "internalType": "uint256",
          "name": "amount",
          "type": "uint256"
        }
      ],
      "name": "Supply",
      "type": "event"
    },
    {
      "anonymous": false,
      "inputs": [
        {
          "indexed": true,
          "internalType": "address",
          "name": "asset",
          "type": "address"
        },
        {
          "indexed": true,
          "internalType": "address",
          "name": "user",
          "type": "address"
        },
        {
          "indexed": false,
          "internalType": "uint256",
          "name": "amount",
          "type": "uint256"
        }
      ],
      "name": "Withdraw",
      "type": "event"
    },
    {
      "inputs": [
        {
          "internalType": "address",
          "name": "asset",
          "type": "address"
        },
        {
          "internalType": "uint256",
          "name": "amount",
          "type": "uint256"
        },
        {
          "internalType": "uint256",
          "name": "interestRateMode",
          "type": "uint256"
        },
        {
          "internalType": "uint16",
          "name": "referralCode",
          "type": "uint16"
        },
        {
          "internalType": "address",
          "name": "onBehalfOf",
          "type": "address"
        }
      ],
      "name": "borrow",
      "outputs": [],
      "stateMutability": "nonpayable",
      "type": "function"
    },
    {
      "inputs": [
        {
          "internalType": "address",
          "name": "asset",
          "type": "address"
        }
      ],
      "name": "getReserveData",
      "outputs": [
        {
          "components": [
            {
              "internalType": "address",
              "name": "underlyingAsset",
              "type": "address"
            },
            {
              "internalType": "uint256",
              "name": "totalSupply",
              "type": "uint256"
            },
            {
              "internalType": "uint256",
              "name": "totalBorrow",
              "type": "uint256"
            },
            {
              "internalType": "uint256",
              "name": "liquidityRate",
              "type": "uint256"
            },
            {
              "internalType": "uint256",
              "name": "variableBorrowRate",
              "type": "uint256"
            }
          ],
          "internalType": "struct MockPool.ReserveData",
          "name": "",
          "type": "tuple"
        }
      ],
      "stateMutability": "view",
      "type": "function"
    },
    {
      "inputs": [
        {
          "internalType": "address",
          "name": "user",
          "type": "address"
        },
        {
          "internalType": "address",
          "name": "asset",
          "type": "address"
        }
      ],
      "name": "getUserAccountData",
      "outputs": [
        {
          "internalType": "uint256",
          "name": "totalCollateral",
          "type": "uint256"
        },
        {
          "internalType": "uint256",
          "name": "totalDebt",
          "type": "uint256"
        },
        {
          "internalType": "uint256",
          "name": "availableBorrows",
          "type": "uint256"
        },
        {
          "internalType": "uint256",
          "name": "currentLiquidationThreshold",
          "type": "uint256"
        },
        {
          "internalType": "uint256",
          "name": "ltv",
          "type": "uint256"
        },
        {
          "internalType": "uint256",
          "name": "healthFactor",
          "type": "uint256"
        }
      ],
      "stateMutability": "view",
      "type": "function"
    },
    {
      "inputs": [
        {
          "internalType": "address",
          "name": "asset",
          "type": "address"
        },
        {
          "internalType": "uint256",
          "name": "amount",
          "type": "uint256"
        },
        {
          "internalType": "uint256",
          "name": "interestRateMode",
          "type": "uint256"
        },
        {
          "internalType": "address",
          "name": "onBehalfOf",
          "type": "address"
        }
      ],
      "name": "repay",
      "outputs": [
        {
          "internalType": "uint256",
          "name": "",
          "type": "uint256"
        }
      ],
      "stateMutability": "nonpayable",
      "type": "function"
    },
    {
      "inputs": [
        {
          "internalType": "address",
          "name": "",
          "type": "address"
        }
      ],
      "name": "reserves",
      "outputs": [
        {
          "internalType": "address",
          "name": "underlyingAsset",
          "type": "address"
        },
        {
          "internalType": "uint256",
          "name": "totalSupply",
          "type": "uint256"
        },
        {
          "internalType": "uint256",
          "name": "totalBorrow",
          "type": "uint256"
        },
        {
          "internalType": "uint256",
          "name": "liquidityRate",
          "type": "uint256"
        },
        {
          "internalType": "uint256",
          "name": "variableBorrowRate",
          "type": "uint256"
        }
      ],
      "stateMutability": "view",
      "type": "function"
    },
    {
      "inputs": [
        {
          "internalType": "address",
          "name": "asset",
          "type": "address"
        },
        {
          "internalType": "uint256",
          "name": "amount",
          "type": "uint256"
        },
        {
          "internalType": "address",
          "name": "onBehalfOf",
          "type": "address"
        },
        {
          "internalType": "uint16",
          "name": "referralCode",
          "type": "uint16"
        }
      ],
      "name": "supply",
      "outputs": [],
      "stateMutability": "nonpayable",
      "type": "function"
    },
    {
      "inputs": [
        {
          "internalType": "address",
          "name": "",
          "type": "address"
        },
        {
          "internalType": "address",
          "name": "",
          "type": "address"
        }
      ],
      "name": "userAccounts",
      "outputs": [
        {
          "internalType": "uint256",
          "name": "totalCollateral",
          "type": "uint256"
        },
        {
          "internalType": "uint256",
          "name": "totalDebt",
          "type": "uint256"
        },
        {
          "internalType": "uint256",
          "name": "availableBorrows",
          "type": "uint256"
        },
        {
          "internalType": "uint256",
          "name": "currentLiquidationThreshold",
          "type": "uint256"
        },
        {
          "internalType": "uint256",
          "name": "ltv",
          "type": "uint256"
        },
        {
          "internalType": "uint256",
          "name": "healthFactor",
          "type": "uint256"
        }
      ],
      "stateMutability": "view",
      "type": "function"
    },
    {
      "inputs": [
        {
          "internalType": "address",
          "name": "asset",
          "type": "address"
        },
        {
          "internalType": "uint256",
          "name": "amount",
          "type": "uint256"
        },
        {
          "internalType": "address",
          "name": "to",
          "type": "address"
        }
      ],
      "name": "withdraw",
      "outputs": [
        {
          "internalType": "uint256",
          "name": "",
          "type": "uint256"
        }
      ],
      "stateMutability": "nonpayable",
      "type": "function"
    }
  ],
  "bytecode": "0x60808060405234601557610a5b908161001a8239f35b5f80fdfe608060409080825260049081361015610016575f80fd5b5f3560e01c9081632ff75c59146107305750806335ea6a7514610682578063573ade8114610534578063617ba0371461042857806369328dec146102e0578063a415bcad146101c2578063d66bd5241461015f5763f544764914610078575f80fd5b3461015b578160031936011261015b576100906107bc565b6100986107d2565b9060018060a01b038091165f526001602052835f2091165f52602052815f2082519160c0830183811067ffffffffffffffff821117610148579160a09161014493865281549485815260018301549687602083015260028401549182828201526005600386015494856060840152860154958660808401520154958691015251968796879260a094919796959260c0850198855260208501526040840152606083015260808201520152565b0390f35b604182634e487b7160e01b5f525260245ffd5b5f80fd5b503461015b57602036600319011261015b5760a0916001600160a01b03806101856107bc565b165f525f602052815f2090815416926001820154926002830154916003840154930154938151958652602086015284015260608301526080820152f35b823461015b5760a036600319011261015b576101dc6107bc565b906024356101e86107fe565b506001600160a01b036084358181169491929085900361015b577f312a5e5e1079f5dda4e95dbbd0b908b291fd5b992ef22073643ab691572c5b52926020926001461415806102d4575b806102c8575b806102bd575b806102b2575b61024d90610843565b169361025a851515610888565b6102658215156108cb565b6102708233876109c6565b845f525f83526002815f2001610287838254610930565b9055855f5260018352805f20855f5283526001815f20016102a9838254610930565b905551908152a3005b504660891415610244565b50600a46141561023e565b50612105461415610238565b5061a4b1461415610232565b823461015b57606036600319011261015b576102fa6107bc565b602435916103066107e8565b9160014614158061041c575b80610410575b80610405575b806103fa575b61032d90610843565b6001600160a01b0316610341811515610888565b61034c8415156108cb565b8392335f5260209460018652835f20835f528652835f2054106103de575b8361037591836109c6565b805f525f84526001825f200161038c84825461090f565b9055335f5260018452815f20815f528452815f206103ab84825461090f565b90558151908382527f9b1bfa7fa9ee420a16e124f794c35ac9f90472acc99140eb2f6447c714cad8eb853393a351908152f35b335f90815260018652838120838252865283902054935061036a565b504660891415610324565b50600a46141561031e565b50612105461415610318565b5061a4b1461415610312565b823461015b57608036600319011261015b576104426107bc565b7fd1cf3d156d5f8f0d50f6c122ed609cec09d35c9b9fb3fff6ea0959134dae424e60206024356104706107e8565b936104796107fe565b50600146141580610528575b8061051c575b80610511575b80610506575b6104a090610843565b6001600160a01b03908116946104b7861515610888565b6104c28315156108cb565b6104ce8330338961093d565b855f525f84526001875f20016104e5848254610930565b90551694855f5260018352805f20855f528352805f206102a9838254610930565b504660891415610497565b50600a461415610491565b5061210546141561048b565b5061a4b1461415610485565b823461015b57608036600319011261015b5761054e6107bc565b602435916064356001600160a01b038181169182900361015b576001938446141580610676575b8061066a575b8061065f575b80610654575b61059090610843565b1661059c811515610888565b6105a78515156108cb565b8493825f52602095818752845f20835f52875281855f20015410610638575b6105d28530338561093d565b815f525f86526002845f20016105e986825461090f565b9055825f52808652835f20825f528652835f200161060885825461090f565b90557f05f2eeda0e08e4b437f487c8d7d29b14537d15e3488170dc3de5dbdf8dac4684858451868152a351908152f35b9350815f52838552825f20815f52855283835f200154936105c6565b504660891415610587565b50600a461415610581565b5061210546141561057b565b5061a4b1461415610575565b503461015b57602036600319011261015b5760a09161069f6107bc565b905f60806106ab61080f565b82815282602082015282848201528260608201520152600180851b038092165f525f602052805f20906106dc61080f565b92825416938484526001830154602085019081526080600285015492848701938452600386015495606088019687520154950194855282519586525160208601525190840152516060830152516080820152f35b82843461015b578060031936011261015b578291610144916107506107bc565b6107586107d2565b9060018060a01b038091165f526001602052825f2091165f526020525f208054916001820154600283015490600560038501549385015494015494879260a094919796959260c0850198855260208501526040840152606083015260808201520152565b600435906001600160a01b038216820361015b57565b602435906001600160a01b038216820361015b57565b604435906001600160a01b038216820361015b57565b6064359061ffff8216820361015b57565b6040519060a0820182811067ffffffffffffffff82111761082f57604052565b634e487b7160e01b5f52604160045260245ffd5b1561084a57565b60405162461bcd60e51b81526020600482015260166024820152754d6f636b506f6f6c3a20746573746e6574206f6e6c7960501b6044820152606490fd5b1561088f57565b60405162461bcd60e51b8152602060048201526014602482015273135bd8dad41bdbdb0e881e995c9bc8185cdcd95d60621b6044820152606490fd5b156108d257565b60405162461bcd60e51b8152602060048201526015602482015274135bd8dad41bdbdb0e881e995c9bc8185b5bdd5b9d605a1b6044820152606490fd5b9190820391821161091c57565b634e487b7160e01b5f52601160045260245ffd5b9190820180921161091c57565b6040516323b872dd60e01b5f9081526001600160a01b03938416600452938316602452604494909452909160209060648180855af160015f51148116156109a7575b836040525f6060521561099157505050565b635274afe760e01b835216600482015260249150fd5b60018115166109bd57813b15153d15161661097f565b833d5f823e3d90fd5b60405163a9059cbb60e01b5f9081526001600160a01b039384166004526024949094529260209060448180855af160015f5114811615610a0f575b836040521561099157505050565b60018115166109bd57813b15153d151616610a0156fea2646970667358221220a59bc9c814607948df998df9e5e1331faa247314ebe461bca3e0c127c5a36f6164736f6c63430008190033",
  "linkReferences": {},
  "deployedLinkReferences": {}
}